:020000040800F2
:10000000700700200101000841090008C508000828
:100010003D090008A1070008451200080000000083
:10002000000000000000000000000000D50E0008E5
:10003000A5070008000000002F0D0008E90F0008C8
:100040001B0100081B0100081B0100081B01000820
:100050001B0100081B0100081B0100081B01000810
:100060001B0100081B0100081B0100081B01000800
:100070001B0100081B0100081B0100081B010008F0
:100080001B0100081B0100081B0100081B010008E0
:100090001B0100081B0100081B0100081B010008D0
:1000A0001B0100081B0100081B0100081B010008C0
:1000B0001B0100081B0100081B0100081B010008B0
:1000C0001B0100081B0100081B0100081B010008A0
:1000D0001B0100081B0100081B0100081B01000890
:1000E0001B0100081B0100081B010008DFF80CD0F1
:1000F00000F0E8FA00480047B51C0008700700202F
:100100000648804706480047FEE7FEE7FEE7FEE7B1
:10011000FEE7FEE7FEE7FEE7FEE7FEE7ED0F00087D
:10012000ED0000082DE9FE4F81EA030404F00044CD
:1001300021F0004100944FF0000B23F0004350EAFF
:1001400001045ED052EA03045BD0C3F30A54C1F346
:100150000A552C44A4F2F3340194A0FB0254C1F3D9
:10016000130141F48011C3F3130343F4801301FB23
:10017000024400FB034E840A970A44EA815447EA8A
:100180008357A4FB076802958D0A05FB07854FEA94
:10019000932C04FB0C542705029D4FEA065847EAAE
:1001A0001637B5EB08056EEB070C870E920E47EA83
:1001B000811742EA8312A7FB0201B6EB0B0164EB45
:1001C00000042B0D43EA0C335E1844EB1C50DA4656
:1001D0005146E7FB0201C5F313044FEA0B3343EA30
:1001E00014534FEA0432019C43EA0603A4F10C04C1
:1001F0000294009CCDE900B400F03EF903B0BDE8E4
:10020000F08F00200146F9E72DE9F04D81EA030463
:1002100004F0004B21F0004514464FF0000A23F093
:10022000004150EA050220D054EA01021DD0C5F376
:100230000A570246C5F31303C1F31300C1F30A566C
:1002400040F4801543F48013A7EB0608101BD64634
:1002500008F2FD3873EB050002D308F1010801E054
:1002600092185B41B8F1000F03DA00200146BDE8A7
:10027000F08D00204FF48011064684460EE0171BD7
:1002800073EB050705D3121B63EB050306434CEA2A
:10029000010C49084FEA300092185B4150EA01070F
:1002A000EDD152EA030012D082EA040083EA05018C
:1002B000084305D0101BAB4106D20122002306E003
:1002C00000224FF0004302E06FF0010253101AEBDE
:1002D00006004CEB085110EB0A0041EB0B01BDE8A6
:1002E000F04D00F0BAB80EB540F233410291002152
:1002F000CDE900110A460B4600F0BEF803B000BD80
:1003000000F0004230F000400AD0C10D01F56071EC
:10031000C0F3160042EA0151C2084007114370477A
:1003200000200146704701F0004330B421F0004145
:1003300050EA010206D00A0DA2F56072C1F3130162
:10034000002A02DC30BC00207047440F44EAC1049C
:10035000C100E01830BC00EBC25000F047B830B527
:100360000B46014600202022012409E021FA02F573
:100370009D4205D303FA02F5491B04FA02F528440D
:10038000151EA2F10102F1DC30BD2DE9F05F05463A
:10039000002092469B4688460646814640241BE044
:1003A000284641464746224600F0ADF953465A4694
:1003B000C01A914110D311461846224600F094F914
:1003C0002D1A67EB01084F4622460120002100F05C
:1003D0008BF917EB00094E41201EA4F10104DFDC6C
:1003E000484631462A464346BDE8F09F0029A8BF4B
:1003F0007047401C490008BF20F00100704710B44E
:10040000B0FA80FC00FA0CF050EA010404BF10BC02
:10041000704749B1CCF1200421FA04F411FA0CF12F
:1004200018BF012121430843A3EB0C01CB1D4FEA68
:1004300000614FEA102042BF002010BC704700EB63
:10044000C35010440029A4BF10BC7047401C490091
:1004500008BF20F0010010BC704710B5141E73F1E6
:10046000000408DA401C41F1000192185B411A4374
:1004700001D120F0010010BD2DE9F04D92469B46C0
:1004800011B1B1FA81F202E0B0FA80F22032904666
:1004900000F02AF904460F4640EA0A0041EA0B013F
:1004A00053465A46084313D0114653EA010019D067
:1004B000C8F14002504600F026F905460E46504667
:1004C0005946424600F010F9084305D0012004E0E7
:1004D00020463946BDE8F08D0020054346EAE07627
:1004E0002C4337430A986305E40AA0EB0800002276
:1004F000FD0A44EA47540A3002D500200146E9E7E4
:10050000010510196941DDE9084500196941BDE897
:10051000F04DA2E72DE9FE4F804681EA0300C00FAF
:100520000C46009021F0004123F00045B8EB02009A
:10053000A94105D24046214690461C460B4602463C
:1005400023F00040104347D0270DC7F30A00C3F340
:100550000A510290401A019040286BDAC3F313004D
:1005600040F4801B0098924620B10023D2EB030A8E
:1005700063EB0B0B01985946C0F14002504600F066
:10058000B3F806460D4650465946019A00F0CBF89E
:1005900010EB08006141002487EA115284EAE773F6
:1005A0001A4340D0009A62B3019A012A4FEA0752D7
:1005B00015DC001B61EB02014FF0004202EA07521A
:1005C000CDE90042001C41F5801132462B46FFF771
:1005D00053FF03B0BDE8F08F40462146F9E7001B0A
:1005E00061EB0201001C41F5801300185B412018EB
:1005F000A2F5001747EB030140EAD570B6196D412B
:1006000011E06D084FEA360645EAC0754FEA075219
:10061000001B61EB0201001C41F5801149084FEA03
:1006200030000019514132462B4603B0BDE8F04F6F
:10063000FFF713BF0098012240000023D0EB020215
:1006400063EBE073009821464FEAE074B8EB0000DA
:1006500061EB0401E9E783F000435BE781F00041CF
:1006600058E7C1F30A52C1F3130140F2FF3341F4DA
:1006700080119A4202DA00200146704740F233436B
:100680009A42A2F2334202DC524200F03CB800F03F
:100690002BB8000030B5041E71F1000404DB4FF0EC
:1006A0000044404264EB0101141E73F1000405DBB9
:1006B0001C464FF00043524263EB0403994208BFCB
:1006C000904230BD064C074D06E0E06840F0010363
:1006D00094E8070098471034AC42F6D3FFF70AFDC0
:1006E0004828000868280008202A04DB203A00FA7D
:1006F00002F1002070479140C2F1200320FA03F379
:10070000194390407047202A04DB203A21FA02F076
:100710000021704721FA02F3D040C2F1200291403B
:10072000084319467047202A06DBCB17203A41FAC6
:1007300002F043EAE07306E041FA02F3D040C2F16E
:100740002002914008431946704770B58C1810F884
:10075000015B15F0070301D110F8013B2A1106D106
:1007600010F8012B03E010F8016B01F8016B5B1E20
:10077000F9D12B0705D40023521E0DD401F8013BFB
:10078000FAE710F8013BCB1A921C03E013F8015B67
:1007900001F8015B521EF9D5A142D8D3002070BDEB
:1007A00000BFFEE770472DE9F04102460025002614
:1007B000002000230024002791F803C00CF00F054F
:1007C00091F803C00CF0100CBCF1000F03D091F8AD
:1007D00002C04CEA050591F800C0BCF1000F31D011
:1007E000146800202BE04FF0010C0CFA00F3B1F874
:1007F00000C00CEA03069E4220D183004FF00F0C8C
:100800000CFA03F7BC4305FA03FC4CEA040491F824
:1008100003C0BCF1280F06D14FF0010C0CFA00FC0C
:10082000C2F814C00AE091F803C0BCF1480F05D12A
:100830004FF0010C0CFA00FCC2F810C0401C082854
:10084000D1D31460B1F800C0BCF1FF0F34DD54689F
:1008500000202EE000F1080C4FF0010808FA0CF31C
:10086000B1F800C00CEA03069E4221D183004FF08C
:100870000F0C0CFA03F7BC4305FA03FC4CEA040422
:1008800091F803C0BCF1280F05D100F1080C08FA5B
:100890000CF8C2F8148091F803C0BCF1480F07D1DE
:1008A00000F1080C4FF0010808FA0CF8C2F81080AB
:1008B000401C0828CED35460BDE8F08141617047E8
:1008C0000161704700BFFEE710B54FF400610948B1
:1008D000FFF7F6FF4FF480510648FFF7F1FF4FF4A2
:1008E00080510448FFF7EAFF4FF400610148FFF729
:1008F000E5FF10BD0008014010B54FF40061074846
:10090000FFF7DEFF4FF480510448FFF7D7FF4FF4A5
:1009100080510248FFF7D4FF10BD000000080140DD
:1009200010B54FF400610448FFF7CAFF4FF40061AF
:100930000148FFF7C3FF10BD0008014000BFFEE7FC
:100940007047000070B5002100230F22C47804B363
:10095000154C246804F4E064C4F5E064210AC1F194
:100960000403CA40447804FA03F184781440214314
:1009700009010E4C0678A155047804F01F050124E6
:10098000AC4005786D11AD0005F1E025C5F80041DA
:1009900009E0047804F01F050124AC40044D0678FA
:1009A000761145F8264070BD0CED00E000E400E053
:1009B00080E100E002490143024A116070470000F3
:1009C0000000FA050CED00E070B5002418E004F119
:1009D000B000002100F09FF90021084600F09BF9CB
:1009E0000021102000F097F9002505E001210020EA
:1009F00000F091F9681CC5B2802DF7DB601CC4B211
:100A0000082CE4DB70BD000008B50121042000F0D3
:100A10009FF94FF4C050ADF8000010208DF803008E
:100A200003208DF8020069463C48FFF7BCFE4FF4F6
:100A3000C0513A48FFF744FF4FF4487001F002F903
:100A40000021AE2000F067F90021084600F063F9AC
:100A50000021102000F05FF90021402000F05BF938
:100A60000021B02000F057F90021812000F053F957
:100A70000021FF2000F04FF90021A12000F04BF9E8
:100A80000021A62000F047F90021A82000F043F93A
:100A900000213F2000F03FF90021C82000F03BF981
:100AA0000021D32000F037F90021084600F033F987
:100AB0000021D52000F02FF90021802000F02BF933
:100AC0000021D82000F027F90021052000F023F9AB
:100AD0000021D92000F01FF90021F12000F01BF9BE
:100AE0000021DA2000F017F90021122000F013F99C
:100AF0000021DB2000F00FF90021302000F00BF97D
:100B000000218D2000F007F90021142000F003F9E6
:100B10000021AF2000F0FFF808BD000000080140F0
:100B200070B504460D4605F1B000002100F0F3F861
:100B3000102141EA1410002100F0EDF804F00F003C
:100B4000002100F0E8F870BD2DE9F04180460E4626
:100B50001546002731464046FFF7E2FF00240AE031
:100B6000124A02EB8511085D012100F0D4F8781CCF
:100B7000C7B2601CC4B2102CF2DB701CC1B240467C
:100B8000FFF7CEFF00240CE06900491C074A02EB86
:100B90004111085D012100F0BEF8781CC7B2601C4D
:100BA000C4B2102CF0DBBDE8F08100002C00002066
:100BB0002DE9F04707460E46904699460025002449
:100BC000A8F12000C5B27F2F02DD0027B01CC6B2FD
:100BD000B9F1100F24D131463846FFF7A1FF0024A8
:100BE00008E004EB0511194A505C012100F093F86C
:100BF000601CC4B2082CF4DB701CC1B23846FFF78D
:100C00008FFF002409E004EB051108310F4A505C06
:100C1000012100F080F8601CC4B2082CF3DB12E064
:100C200031463846FFF77CFF00240AE005EB45011A
:100C3000074A02EB4101085D012100F06CF8601CDD
:100C4000C4B2062CF2DBBDE8F08700005822000891
:100C5000302000082DE9FF5F074691461E460E9D95
:100C60004FF0000A002435E0301B401EC1B20A20BC
:100C700001F014F9B9FBF0F00A21B0FBF1F201FB2D
:100C80001208BAF1000F14D1701EA04211DDB8F1A4
:100C9000000F0CD1AB4605EBDB71491001FB047171
:100CA000C8B22B4620220199FFF782FF10E04FF0D7
:100CB000010AAB4605EBDB71491001FB0471C8B2B8
:100CC00008F13001CAB22B460199FFF771FF00BF4E
:100CD000601CC4B2B442C7DBBDE8FF9F2DE9F04100
:100CE00004460F461546984600260FE0AA5D434687
:100CF00039462046FFF75CFF04F10800C4B2782CA7
:100D000002DD0024B81CC7B2701CC6B2A85D002862
:100D1000ECD1BDE8F08170B504460D461DB1E0B2DE
:100D200000F0D6FA02E0E0B200F0BCFA70BD704705
:100D300029B1064A12690243044B1A6104E0034ACE
:100D400012698243014B1A61704700000010024093
:100D500029B1064A92690243044B9A6104E0034AAE
:100D600092698243014B9A61704700000010024073
:100D700029B1064AD2680243044BDA6004E0034A10
:100D8000D2688243014BDA607047000000100240D5
:100D900030B500210022002400232D4D6D6805F0A0
:100DA0000C0121B1042905D0082923D105E0294DE2
:100DB000056022E0274D05601FE0254D6D6805F4B4
:100DC0007012234D6D6805F48034022505EB9242C4
:100DD0001CB9214D554305600BE01D4D6D6805F4B0
:100DE00000351DB11C4D5543056002E0194D5543BA
:100DF000056002E0174D056000BF00BF144D6D682F
:100E000005F0F0010909154D6B5C0568DD40456092
:100E10000F4D6D6805F4E061090A104D6B5C456883
:100E2000DD4085600A4D6D6805F46051C90A0B4DBF
:100E30006B5C4568DD40C560054D6D6805F440415B
:100E4000890B074D6B5CC568B5FBF3F5056130BDDB
:100E50000010024000127A0000093D001800002036
:100E60002800002021B1028842F04002028004E004
:100E700002884FF6BF731A40028070470246002076
:100E800013890B400BB1012000E0002070470146A0
:100E9000888970478181704710B50022028802F46A
:100EA00041520B884C8823438C882343CC882343AE
:100EB0000C8923434C8923438C892343CC892343C6
:100EC0001A430280838B4FF2FF74234083830B8A83
:100ED000038210BD704710B500F002F810BD00008D
:100EE0000CB50020019000903348006840F4803039
:100EF0003149086000BF3048006800F400300090BD
:100F00000198401C0190009818B90198B0F5A06FA5
:100F1000F1D12948006800F4003010B101200090A0
:100F200001E0002000900098012843D12348006888
:100F300040F01000214908600846006820F00300D6
:100F400008600846006840F0020008601A484068DF
:100F5000194948600846406848600846406840F4BF
:100F6000806048600846406820F47C10486008466D
:100F7000406840F4E81048600846006840F080701F
:100F8000086000BF0C48006800F000700028F9D02D
:100F90000948406820F00300074948600846406857
:100FA00040F00200486000BF0348406800F00C00B9
:100FB0000828F9D10CBD00000010024000200240BA
:100FC000042808D14FF0E021096941F004014FF0F5
:100FD000E022116107E04FF0E021096921F00401EE
:100FE0004FF0E022116170477047000010B51348C0
:100FF000006840F001001149086008464068104947
:1010000008400E494860084600680E4908400B49F0
:1010100008600846006820F48020086008464068A0
:1010200020F4FE0048604FF41F008860FFF753FF74
:101030004FF000600449086010BD0000001002403D
:101040000000FFF8FFFFF6FE08ED00E021B1828905
:1010500042F40052828104E082894DF6FF731A4007
:101060008281704710B504462048844209D101218D
:101070008803FFF77DFE00214FF48040FFF778FEE4
:1010800032E01B48844209D101214804FFF750FE99
:1010900000214FF40030FFF74BFE25E01548844255
:1010A00009D101218804FFF743FE00214FF480207D
:1010B000FFF73EFE18E01048844209D10121C80420
:1010C000FFF736FE00214FF40020FFF731FE0BE062
:1010D0000A48844208D101210805FFF729FE0021B2
:1010E0004FF48010FFF724FE10BD000000380140CF
:1010F0000044004000480040004C004000500040C8
:1011000002460020B1F5007F00D100BF13880B40DC
:101110000BB1012000E000207047F0B50346002429
:1011200000260025002040F66A17B94200D100BF12
:101130001846C1F3421401F01F06012707FA06F50D
:10114000012C01D10C3004E0022C01D1103000E060
:1011500014301AB107682F43076002E00768AF43F5
:101160000760F0BD2DE9F04786B005460E46002425
:10117000A24600BFA1460027B08900B100BF2F469C
:101180002C8A4CF6FF700440F08804432C82AC8912
:101190004EF6F3100440B088318908437189084342
:1011A0000443AC81AC8A4FF6FF400440B08904434D
:1011B000AC8201A8FFF7ECFD1F48874202D1DDF8A1
:1011C00010A001E0DDF80CA0A88900F4004040B1B7
:1011D0000AEBCA0000EB0A1031684900B0FBF1F8D5
:1011E00007E00AEBCA0000EB0A1031688900B0FB87
:1011F000F1F86420B8FBF0F004012009642101FB40
:101200001089A88900F4004040B1322000EBC900E9
:10121000B0FBF1F000F00700044308E0322000EBDF
:1012200009106421B0FBF1F000F00F0004432C81A1
:1012300006B0BDE8F087000000380140C1F30802A5
:101240008280704700BFFEE72DE9F04105462C463D
:101250004FF400611248FFF731FB00261CE02746DF
:1012600007F08007802F04D179010D48FFF728FB94
:1012700004E04FF480510A48FFF720FB6006040E9B
:101280004FF400610648FFF71BFB4FF40061044870
:10129000FFF714FB701CC6B2082EE0DBBDE8F0813E
:1012A0000008014010B50446FFF70EFB7820FFF759
:1012B000CBFFFFF735FB0020FFF7C6FFFFF730FB42
:1012C0002046FFF7C1FFFFF72BFBFFF715FB10BD13
:1012D00010B50446FFF7F8FA7820FFF7B5FFFFF7DF
:1012E0001FFB4020FFF7B0FFFFF71AFB2046FFF778
:1012F000ABFFFFF715FBFFF7FFFA10BD0FB4054B6F
:1013000010B503A9044A029800F0DEF810BC5DF89D
:1013100014FB0000911C00086C0300200FB4084B64
:1013200010B504A902AA039800F0CEF8044602A959
:10133000002000F060FC204610BC5DF814FB0000AB
:10134000F71B000802E008C8121F08C1002AFAD1E2
:1013500070477047002001E001C1121F002AFBD135
:10136000704700002DE9FF5FDDE90220010DDDF887
:1013700038B0024318D044F61050A1F2FF31414377
:101380000D140F98012820D0A5EB0B00401C5FEA3C
:10139000000A4FF00004474EDFF81C91A04650466B
:1013A00016D5CAF1000728E00F98012443A20128AE
:1013B00008D0002100980F9BC0E90021C0E902433A
:1013C000BDE8FF9F6FEA0B01F4E7CBF10000DEE719
:1013D000074612E0F80707D0224633464046494602
:1013E000FEF7A0FE8046894622463346104619463F
:1013F000FEF798FE04460E467F10002FEAD1DDE985
:101400000201BAF1000F42464B4602DAFEF78AFEAD
:1014100001E0FEF7F9FE04460E460022284BFFF7D6
:1014200039F903D84FF0FF30014607E00022254B81
:1014300020463146FFF76EF8FFF713F9102409E054
:10144000002C0ADB0A220023FEF79FFF019B3032AB
:101450001A55641E50EA0102F2D1641C019AC4F1CB
:10146000110314440F9A012A03D0012208430DD11D
:101470000AE0084304D000204FF0110B0F9080E7E2
:10148000A3EB0B056D1E0DE05B4504DD4FF0000284
:1014900005F1010504E003DA4FF00002A5F10105B2
:1014A000002AECD000980F99C0E90231C0E900454C
:1014B00086E70000000024400000F03F30000000FC
:1014C0000000F0430000E03F2DE9FF4F95B09B4640
:1014D0008946064600250FE2252877D100242746B5
:1014E000F84A0121059400E0044316F8013F203B2F
:1014F00001FA03F01042F7D130782A2811D06FF0AA
:101500002F033078A0F13002092A16D8059A44F04A
:10151000020402EB820203EB42021044761C0590A7
:10152000EFE759F8042B0592002A03DA504244F4FD
:101530000054059044F00204761C30782E2816D111
:1015400016F8010F44F004042A280DD06FF02F0282
:101550003078A0F13003092B09D807EB870302EBA1
:101560004303C718761CF3E759F8047B761C3078E0
:101570006C280FD006DC4C2817D068280DD06A28BC
:1015800014D104E0742810D07A280FD10DE044F46F
:1015900000140AE044F4801401E044F4401472782A
:1015A000824202D104F58014761C761C30786628BD
:1015B0000BD013DC582877D009DC002875D04528DB
:1015C000F6D04628F4D047281AD19DE118E06328C8
:1015D00035D0642879D0652812D195E1702873D070
:1015E00008DC6728F1D069286FD06E280DD06F28ED
:1015F00006D1B5E073282CD0752875D0782874D022
:101600005A46179990476D1C75E1C4F302500228A1
:1016100009D003280DD0D9F8001004280DD00D6092
:1016200009F1040967E1D9F80010EA17C1E900528D
:10163000F6E7D9F800100D80F2E70D70F0E719F821
:10164000041B8DF8001000208DF80100EA460120EF
:1016500003E059F804AB4FF0FF3061074FF0000191
:1016600002D40DE008F101018846B9420FDA804545
:10167000F8DB1AF808100029F4D108E008F101019C
:1016800088468142FADB1AF808100029F6D105983D
:101690005B46A0EB080721463846179A00F094FAFB
:1016A000284400EB080507E04DE029E10DE01AF8B9
:1016B000010B5A4617999047B8F10108F7D25B46DB
:1016C00021463846179A13E142E00A220092C4F3F9
:1016D00002524FF0000A022A08D059F804CB032A1C
:1016E0004FEAEC710AD00DE029E02AE009F1070188
:1016F00021F00702F2E802C1914609E00FFA8CFCE2
:101700004FEAEC71042A03D14FFA8CFC4FEAEC71DA
:10171000002907DA0A460021DCF1000C61EB020126
:101720002D2202E0220504D52B228DF8042001226F
:1017300003E0E20701D02022F7E7904659E00A21B2
:1017400002E010220DE010214FF0000A00910BE0A2
:1017500010224FF0000A44F004040827009203E02E
:1017600008224FF0000A0092C4F30252022A05D068
:1017700059F804CB0021032A08D009E009F1070138
:1017800021F00702F2E802C1914605E01FFA8CFC45
:10179000042A01D10CF0FF0C4FF00008220728D5D5
:1017A000702806D0009B83F0100353EA0A0305D08B
:1017B0000EE040228DF80420012208E05CEA0102DC
:1017C00006D030228DF804208DF8050002229046C4
:1017D000009B83F0080353EA0A030AD15CEA010282
:1017E00001D1620705D530228DF804204FF00108A1
:1017F0007F1E582804D034A003900EA802900DE05C
:1018000036A0F9E753466046009AFEF7BEFD8446CF
:101810000398825C0298401E029002705CEA01000C
:10182000F0D1029806A9081A00F1200A600702D533
:1018300024F4803400E00127574502DDA7EB0A00BD
:1018400000E0002000EB0A01009005984144401A96
:101850000590E00306D45B462146179A059800F0F0
:10186000B3F90544002706E001A85A46C05D179960
:1018700090476D1C7F1C4745F6DBE0030CD55B46AB
:101880002146179A059800F09FF9054404E030209E
:101890005A46179990476D1C0099481E00900029E0
:1018A000F5DC08E0029802995A460078491C02913A
:1018B000179990476D1CBAF10001AAF1010AF1DCF9
:1018C00065E1000009280100303132333435363704
:1018D000383961626364656600000000303132337C
:1018E000343536373839414243444546000000001C
:1018F00000F058F90544761C307800287FF4ECADF0
:1019000019B02846BDE8F08F620700D4062709F118
:10191000070222F0070CFCE80223E14603F000482E
:101920005FEA080C02D00FF2702C0DE05FEA045C55
:1019300002D50FF2682C07E05FEAC47C02D00FF2F8
:10194000602C01E0AFF2700C4FF0FF3823F0004341
:10195000CDF850C065280CD006DC452809D04628B3
:101960001DD047283DD13DE0662818D067287ED19C
:1019700038E00021112F01DB112000E0781CCDE9B7
:10198000000106A90EA8FFF7EDFCDDE90F010E9A94
:1019900003910021009207F1010A04914DE04FF0FC
:1019A00000400097CDE9011006A90EA8FFF7DAFC68
:1019B000DDE90F0203920E9B11990022DDF80CA0C5
:1019C0000093049211B9791C00EB010AB7EB0A00ED
:1019D00004D4C0F1FF3007F1010A0490AAEB07001C
:1019E000019044E0012F00DA01270021112F01DDD1
:1019F000112000E03846CDE9000106A90EA8FFF746
:101A0000B1FCDDE90F010E9A0391002104910092CF
:101A1000BA4621070CD40399514500DA8A46BAF137
:101A2000010F05DD009AAAF10101515C302908D0AF
:101A3000B84202DA10F1040F06DA0121CDE90110F3
:101A400015E0AAF10101E9E7002805DC0499014449
:101A50000491AAEB000102E0411C514500DD8A46D9
:101A60000499401A401C01904FF00040029020075A
:101A700004D40198504501DBCDF8048000208DF896
:101A80004F0002980DF14F07B0F1004F25D02B20E9
:101A90000E9002984FF0020800280CDA40420290A3
:101AA0002D200E9007E00A210298FEF758FC3031F5
:101AB000029007F8011DB8F10001A8F10108F2DC5D
:101AC00002980028EFD1791E0E980870307800F047
:101AD000200040F0450007F8020D12A8C01B00F1DD
:101AE00007081498007800B1012000EB0A01019862
:101AF00001EBE07105984144401A401E0590E00357
:101B000006D45B462146179A059800F05DF8054417
:101B10001498007818B15A46179990476D1CE00345
:101B200024D55B462146179A059800F04DF80544E8
:101B30001CE00498002807DBDDE90301884203DD8F
:101B40000098405C179901E0179930205A46904759
:101B5000049805F10105401C04900198401E019075
:101B600004D12E205A46179990476D1CBAF10001F6
:101B7000AAF1010ADDDC05E017F8010B5A461799B6
:101B800090476D1CB8F10001A8F10108F4DC5B4638
:101B90002146179A0598ABE62D0000002B000000A7
:101BA000200000002DE9F041044600251E4617469E
:101BB000880404D405E039462020B0476D1C641E1B
:101BC000F9D52846BDE8F0812DE9F041044600250D
:101BD0001E469046C80301D5302700E02027880420
:101BE00004D505E041463846B0476D1C641EF9D562
:101BF0002846BDE8F0810A68531C0B6010707047DE
:101C000010B56FF00400FFF7DBF90A4800680A49D5
:101C1000B0FBF1F0094908700846007800EB40017C
:101C2000C1EBC0104FF6FF7101EAC0000449088003
:101C300010BD00000000002000127A0014000020F7
:101C4000160000200146114A12884A434FF0E02353
:101C50005A6100229A611A46126942F001021A6121
:101C600000BF4FF0E022106900F001021AB100F449
:101C70008032002AF5D04FF0E022126922F00102F2
:101C80004FF0E0231A6100229A617047160000208D
:101C900070B504460D46E1B20548FFF7CFFA00BF24
:101CA00080210348FFF72CFA0028F9D0204670BDA8
:101CB0000038014086B0FFF7A3FF00F095F84FF41D
:101CC000E13000F061F94FF4A060FEF773FEFEF71B
:101CD0009BFEFEF779FE66E000F0A0F8064631466E
:101CE00031A0FFF70BFB00F0B9F807463846FEF7C6
:101CF00007FB044622460B4631A0FFF7FFFA37A048
:101D0000FFF7FCFA4FF4FA70FFF79CFF3846FEF736
:101D1000F7FA044622460B4631A101A8FFF7FEFA66
:101D2000002211461046FEF70FFF0122002110206D
:101D3000FEF70AFF10233A2200212020FEF738FF89
:101D4000102301AA00213020FEF7C8FF0222002143
:101D50005020FEF7F9FE032200216020FEF7F4FE7A
:101D6000042200217020FEF7EFFE05220221002050
:101D7000FEF7EAFE062202211020FEF7E5FE07220A
:101D800002212020FEF7E0FE10233A22022130201B
:101D9000FEF70EFF102003233246022100903C2064
:101DA000FEF758FF00BF97E77468652072617720DF
:101DB00076616C75652069733A25640A000000003D
:101DC0007468652074656D706572617475726520E4
:101DD00069733A252E32660A000000000A000000EE
:101DE000252E32660000000008B501210420FEF710
:101DF000AFFF1020ADF800008DF8030003208DF830
:101E0000020069460448FEF7CEFC10210248FEF7A6
:101E100057FD00F04FF808BD0008014010B5102133
:101E20000D48FEF74BFDFF2000F032F804464FF658
:101E3000FF7000EA0424FF2000F02AF80443102178
:101E40000548FEF73DFD04F0040010B14FF4FA64BC
:101E500000E0E410204610BD000801402DE9F047E5
:101E6000FFF7DCFF8246FEF73EFA06460022064BED
:101E7000FEF758F904460022044BFEF7C5F98046E8
:101E8000FEF751FABDE8F087000090400000B04036
:101E900010B50446204600F04DF810BD10B50246BE
:101EA000012000E050430B00A1F10104E1B2F9D19F
:101EB00010BD000000B587B001210420FEF748FFE7
:101EC00001210803FEF744FFE020ADF818001820B8
:101ED0008DF81B0003208DF81A0006A91348FEF7A1
:101EE00062FC0020ADF804004FF48270ADF80600EB
:101EF0000020ADF80800ADF80A00ADF80C004FF472
:101F00000070ADF80E001820ADF810000020ADF8FC
:101F100012000720ADF8140001A90548FEF7BCFF28
:101F200001210348FEF79EFF07B000BD00080140F5
:101F30000030014070B50546002405E0601CC4B2C5
:101F4000C82C01DD002070BD02210E48FEF796FF6F
:101F50000028F3D029460B48FEF79CFF002405E03B
:101F6000601CC4B2C82C01DD0020ECE7012105484B
:101F7000FEF784FF0028F3D00248FEF788FFC0B2C6
:101F8000E1E700000030014010B586B004460121B1
:101F900044F20500FEF7DCFE2348FFF763F84FF438
:101FA0000070ADF8140003208DF8160018208DF88D
:101FB000170005A91D48FEF7F6FB4FF48060ADF849
:101FC000140048208DF8170005A91848FEF7EBFB10
:101FD00001940020ADF80800ADF80A00ADF80C003F
:101FE000ADF810000C20ADF80E0001A90E48FFF767
:101FF000B9F825208DF8000002208DF8010000209E
:102000008DF8020001208DF803006846FEF79AFC67
:10201000012240F225510448FFF77FF801210248D0
:10202000FFF714F806B010BD003801400008014069
:102030000000000000000000002F0000000007006A
:10204000070000147F147F1400242A7F2A120062E4
:102050006408132300364955225000000503000090
:1020600000001C224100000041221C000014083E18
:1020700008140008083E0808000000A060000008DE
:102080000808080800006060000000201008040232
:10209000003E5149453E0000427F400000426151F0
:1020A0004946002141454B31001814127F1000278A
:1020B00045454539003C4A4949300001710905034D
:1020C00000364949493600064949291E000036367E
:1020D00000000000563600000008142241000014E1
:1020E00014141414000041221408000201510906BE
:1020F00000324959513E007C1211127C007F49493F
:102100004936003E41414122007F4141221C007F6F
:1021100049494941007F09090901003E4149497A7D
:10212000007F0808087F0000417F410000204041F7
:102130003F01007F08142241007F40404040007F63
:10214000020C027F007F0408107F003E4141413EA7
:10215000007F09090906003E4151215E007F0919EF
:1021600029460046494949310001017F0101003FEC
:102170004040403F001F2040201F003F4038403F6C
:1021800000631408146300070870080700615149D0
:10219000454300007F41410000552A552A55000063
:1021A00041417F00000402010204004040404040E1
:1021B000000001020400002054545478007F484479
:1021C000443800384444442000384444487F0038B0
:1021D0005454541800087E0901020018A4A4A47CD9
:1021E000007F080404780000447D400000408084A3
:1021F0007D00007F102844000000417F4000007CEB
:1022000004180478007C08040478003844444438F6
:1022100000FC242424180018242418FC007C080442
:10222000040800485454542000043F444020003C1B
:102230004040207C001C2040201C003C4030403CA2
:10224000004428102844001CA0A0A07C0044645432
:102250004C44141414141414000000000000000076
:102260000000000000000000000000F80000000076
:10227000000000333000000000100C06100C0600B7
:10228000000000000000000040C07840C07840001E
:10229000043F04043F040400007088FC0830000080
:1022A000001820FF211E0000F008F000E0180000D8
:1022B00000211C031E211E0000F008887000000091
:1022C0001E2123241927211010160E0000000000E3
:1022D0000000000000000000000000E01804020000
:1022E000000000071820400000020418E000000071
:1022F0000040201807000000404080F0804040006F
:102300000202010F01020200000000F000000000C4
:102310000101011F01010100000000000000000098
:1023200080B070000000000000000000000000000D
:102330000001010101010101000000000000000096
:102340000030300000000000000000008060180431
:10235000006018060100000000E010080810E0000E
:10236000000F102020100F00001010F800000000D7
:102370000020203F2020000000700808088870001E
:10238000003028242221300000300888884830009E
:102390000018202020110E000000C02010F80000BE
:1023A00000070424243F240000F808888808080057
:1023B0000019212020110E0000E01088881800006C
:1023C000000F112020110E0000380808C83808003E
:1023D0000000003F000000000070880808887000BE
:1023E000001C222121221C0000E010080810E0003F
:1023F0000000312222110F00000000C0C0000000C8
:1024000000000030300000000000008000000000EC
:1024100000008060000000000000804020100800E4
:1024200000010204081020004040404040404000AD
:102430000404040404040400000810204080000088
:102440000020100804020100007048080808F0008D
:102450000000003036010000C030C828E810E0005D
:102460000718272423140B000000C038E0000000E8
:10247000203C23020227382008F888888870000052
:10248000203F202020110E00C03008080808380026
:10249000071820202010080008F808080810E0009D
:1024A000203F202020100F0008F88888E80810003E
:1024B000203F20202320180008F88888E808100012
:1024C000203F200003000000C0300808083800004A
:1024D00007182020221E020008F808000008F8084B
:1024E000203F210101213F20000808F808080000D2
:1024F0000020203F2020000000000808F808080005
:10250000C08080807F00000008F888C0281808007C
:10251000203F20012638200008F8080000000000B5
:10252000203F20202020300008F8F800F8F80800AC
:10253000203F003F003F200008F830C00008F808A6
:10254000203F200007183F00E01008080810E000B6
:102550000F10202020100F0008F808080808F000CD
:10256000203F210101010000E01008080810E000F0
:102570000F18242438504F0008F888888888700085
:10258000203F2000030C3020007088080808380025
:102590000038202121221C00180808F8080818001B
:1025A0000000203F2000000008F808000008F8089C
:1025B000001F202020201F000878880000C838084D
:1025C000000007380E010000F80800F80008F800C5
:1025D000033C0700073C030008186880806818085F
:1025E00020302C03032C30200838C800C8380800DD
:1025F0000000203F2000000010080808C83808002C
:102600002038262120201800000000FE02020200CF
:102610000000007F40404000000C30C0000000007F
:10262000000000010638C00000020202FE000000A7
:10263000004040407F00000000000402020204004D
:10264000000000000000000000000000000000008A
:102650008080808080808080000202040000000072
:10266000000000000000000000008080808000006A
:102670000019242222223F2008F800808000000058
:10268000003F112020110E0000000080808000001B
:10269000000E112020201100000000808088F8002A
:1026A000000E112020103F2000008080808000005C
:1026B000001F222222221300008080F088888818C0
:1026C0000020203F202000000000808080808000CB
:1026D000006B94949493600008F800808080000060
:1026E000203F210000203F2000809898000000003B
:1026F0000020203F2020000000000080989800006B
:1027000000C08080807F000008F80000808080008A
:10271000203F24022D302000000808F800000000AF
:102720000020203F2020000080808080808080006A
:10273000203F20003F20003F8080008080800000FC
:10274000203F210000203F2000008080808000008A
:10275000001F202020201F008080008080000000BB
:1027600080FFA12020110E000000008080808000EA
:10277000000E112020A0FF808080800080808000DB
:1027800020203F2120000100000080808080800008
:102790000033242424241900008080E0808000007D
:1027A0000000001F202000008080000000808000CA
:1027B000001F202020103F2080808000008080802B
:1027C00000010E30080601008080008000808080BB
:1027D0000F300C030C300F000080800080808000E0
:1027E0000020312E0E31200080808000008080800B
:1027F00080818E70180601000080808080808000BB
:102800000021302C2221300000000000807C0202D8
:1028100000000000003F404000000000FF000000FA
:1028200000000000FF0000000002027C80000000A9
:102830000040403F000000000006010102020404C5
:1028400000000000000000006828000800000020D0
:10285000700300004A070008BC290008700300202C
:1028600000040000541300081184A24A04A80901BE
:102870000203040607080910691420090204060867
:102880001060028C2BFE92010213FE180A04047ED3
:1028900001407E42427E020413427E402809FC240D
:1028A0002424FC2526240879779100101140308FCC
:1028B00080844C55252525554C808080180A1010A1
:1028C00010FF109082FEAA010B10FE4260080F104C
:1028D0000444827F81422A126E805E22538E401908
:1028E000802A44010F12FE4242434240A02CFF4086
:1028F00020F819EB0C4F2040F8C021000E11FE0209
:1029000002F2929A969292F2020202080E118060EE
:102910001F40201744847C040417209F171010F0D8
:102920001F10F008091040E05847405060C0801E5A
:102930002215081621661A42010213FE080D1080A6
:1029400060F80704E4A4A4BFA4A4E4BF1122012EEC
:10295000FF40407F4A010B107F408115404042CC30
:1029600015048850FF0C11FF50884011080E1040CC
:10297000201F2051484641404F50505D401A10C121
:102980001D10101116082901011419776901091386
:10299000601A1E380A16FF3E4A02015AFF0809143F
:1029A000C02C82BAAA010B15BA82C01A5FFD1A4F59
:0C29B000040A125F8111021FFE02203396
:0400000508000101ED
:00000001FF
